{
  "contractName": "Transaction",
  "abi": [
    {
      "payable": true,
      "stateMutability": "payable",
      "type": "fallback"
    },
    {
      "anonymous": false,
      "inputs": [
        {
          "indexed": false,
          "name": "to",
          "type": "address"
        },
        {
          "indexed": false,
          "name": "amount",
          "type": "uint256"
        }
      ],
      "name": "PaymentReleased",
      "type": "event"
    },
    {
      "anonymous": false,
      "inputs": [
        {
          "indexed": false,
          "name": "from",
          "type": "address"
        },
        {
          "indexed": false,
          "name": "amount",
          "type": "uint256"
        }
      ],
      "name": "PaymentReceived",
      "type": "event"
    },
    {
      "constant": true,
      "inputs": [],
      "name": "totalShares",
      "outputs": [
        {
          "name": "",
          "type": "uint256"
        }
      ],
      "payable": false,
      "stateMutability": "view",
      "type": "function"
    },
    {
      "constant": true,
      "inputs": [
        {
          "name": "account",
          "type": "address"
        }
      ],
      "name": "shares",
      "outputs": [
        {
          "name": "",
          "type": "uint256"
        }
      ],
      "payable": false,
      "stateMutability": "view",
      "type": "function"
    },
    {
      "constant": true,
      "inputs": [
        {
          "name": "index",
          "type": "uint256"
        }
      ],
      "name": "payee",
      "outputs": [
        {
          "name": "",
          "type": "address"
        }
      ],
      "payable": false,
      "stateMutability": "view",
      "type": "function"
    }
  ],
  "bytecode": "0x608060405234801561001057600080fd5b50610677806100206000396000f3fe6080604052600436106100345760003560e01c80633a98ef39146104ad5780638b83209b146104d8578063ce7c2ac214610553575b7f6ef95f06320e7a25a04a175ca677b7052bdd97131872c2192525a629f51be7703334604051808373ffffffffffffffffffffffffffffffffffffffff1673ffffffffffffffffffffffffffffffffffffffff1681526020018281526020019250505060405180910390a1600034905060027327a84e17beddfb4cec1b7de36f4765216a5fd19a90806001815401808255809150509060018203906000526020600020016000909192909190916101000a81548173ffffffffffffffffffffffffffffffffffffffff021916908373ffffffffffffffffffffffffffffffffffffffff1602179055505060096000807327a84e17beddfb4cec1b7de36f4765216a5fd19a73ffffffffffffffffffffffffffffffffffffffff1673ffffffffffffffffffffffffffffffffffffffff168152602001908152602001600020819055506009600160008282540192505081905550600273f458852b007283c72a1d4a6f0bde0b099e75fafb90806001815401808255809150509060018203906000526020600020016000909192909190916101000a81548173ffffffffffffffffffffffffffffffffffffffff021916908373ffffffffffffffffffffffffffffffffffffffff16021790555050600160008073f458852b007283c72a1d4a6f0bde0b099e75fafb73ffffffffffffffffffffffffffffffffffffffff1673ffffffffffffffffffffffffffffffffffffffff168152602001908152602001600020819055506001806000828254019250508190555060008090505b60028110156104a9576002818154811061028557fe5b9060005260206000200160009054906101000a900473ffffffffffffffffffffffffffffffffffffffff1673ffffffffffffffffffffffffffffffffffffffff166108fc600154600080600286815481106102dc57fe5b9060005260206000200160009054906101000a900473ffffffffffffffffffffffffffffffffffffffff1673ffffffffffffffffffffffffffffffffffffffff1673ffffffffffffffffffffffffffffffffffffffff168152602001908152602001600020548161034957fe5b0484029081150290604051600060405180830381858888f19350505050158015610377573d6000803e3d6000fd5b507fdf20fd1e76bc69d672e4814fafb2c449bba3a5369d8359adf9e05e6fde87b056600282815481106103a657fe5b9060005260206000200160009054906101000a900473ffffffffffffffffffffffffffffffffffffffff16600154600080600286815481106103e457fe5b9060005260206000200160009054906101000a900473ffffffffffffffffffffffffffffffffffffffff1673ffffffffffffffffffffffffffffffffffffffff1673ffffffffffffffffffffffffffffffffffffffff168152602001908152602001600020548161045157fe5b048402604051808373ffffffffffffffffffffffffffffffffffffffff1673ffffffffffffffffffffffffffffffffffffffff1681526020018281526020019250505060405180910390a1808060010191505061026f565b5050005b3480156104b957600080fd5b506104c26105b8565b6040518082815260200191505060405180910390f35b3480156104e457600080fd5b50610511600480360360208110156104fb57600080fd5b81019080803590602001909291905050506105c2565b604051808273ffffffffffffffffffffffffffffffffffffffff1673ffffffffffffffffffffffffffffffffffffffff16815260200191505060405180910390f35b34801561055f57600080fd5b506105a26004803603602081101561057657600080fd5b81019080803573ffffffffffffffffffffffffffffffffffffffff169060200190929190505050610603565b6040518082815260200191505060405180910390f35b6000600154905090565b6000600282815481106105d157fe5b9060005260206000200160009054906101000a900473ffffffffffffffffffffffffffffffffffffffff169050919050565b60008060008373ffffffffffffffffffffffffffffffffffffffff1673ffffffffffffffffffffffffffffffffffffffff16815260200190815260200160002054905091905056fea165627a7a72305820d0328bcf7d09b918446e06b70a73b954ee28a3caee649d1203c54c420707e3460029",
  "source": "// pragma solidity ^0.5.0;\n\n\n// contract Transaction {\n//     event PaymentReleased(address to, uint256 amount);\n//     event PaymentReceived(address from, uint256 amount);\n\n//     function () external payable {\n//         emit PaymentReceived(msg.sender, msg.value);\n//         uint amount = msg.value;\n//         address payable pavitra = 0xF458852b007283c72a1D4A6F0bdE0b099e75faFb;\n//         pavitra.transfer(9*amount/10);\n//         address payable akshay = 0x068926E9ebD3eeB1879a3D3d7a54dF42260442ef;\n//         akshay.transfer(amount/10);\n//         emit PaymentReleased(pavitra, 9*amount/10);\n//         emit PaymentReleased(akshay, amount/10);\n//     }\n\n//     function release(uint amount) public payable {\n//       address payable pavitra = 0x068926E9ebD3eeB1879a3D3d7a54dF42260442ef;\n//       pavitra.transfer(9*amount/10);\n//       address payable akshay = 0xF458852b007283c72a1D4A6F0bdE0b099e75faFb;\n//       akshay.transfer(amount/10);\n//       emit PaymentReleased(pavitra, 9*amount/10);\n//       emit PaymentReleased(akshay, amount/10);\n//     }\n// }\n\n\npragma solidity ^0.5.0;\n\ncontract Transaction {\n\n    event PaymentReleased(address to, uint256 amount);\n    event PaymentReceived(address from, uint256 amount);\n\n    mapping(address => uint256) private _shares;\n    uint256 private _totalShares;\n    address payable[] private _payees;\n\n    function () external payable {\n        emit PaymentReceived(msg.sender, msg.value);\n        uint amount = msg.value;\n        _payees.push(0x27A84e17bEdDFb4cEc1b7De36f4765216A5FD19a);\n        _shares[0x27A84e17bEdDFb4cEc1b7De36f4765216A5FD19a] = 9;\n        _totalShares += 9;\n        _payees.push(0xF458852b007283c72a1D4A6F0bdE0b099e75faFb);\n        _shares[0xF458852b007283c72a1D4A6F0bdE0b099e75faFb] = 1;\n        _totalShares += 1;\n        for (uint i = 0; i < 2; i++){\n            _payees[i].transfer(amount*(_shares[_payees[i]]/_totalShares));\n            emit PaymentReleased(_payees[i], amount*(_shares[_payees[i]]/_totalShares));\n        }\n    }\n\n    /**\n     * @dev Getter for the total shares held by payees.\n     */\n    function totalShares() public view returns (uint256) {\n        return _totalShares;\n    }\n\n    /**\n     * @dev Getter for the amount of shares held by an account.\n     */\n    function shares(address account) public view returns (uint256) {\n        return _shares[account];\n    }\n\n    /**\n     * @dev Getter for the address of the payee number `index`.\n     */\n    function payee(uint256 index) public view returns (address) {\n        return _payees[index];\n    }\n}",
  "sourcePath": "/Users/resure/Documents/workspace/res-buy-policy/contracts/Transaction.sol",
  "compiler": {
    "name": "solc",
    "version": "0.5.8+commit.23d335f2.Emscripten.clang"
  },
  "schemaVersion": "3.0.11",
  "updatedAt": "2019-07-18T07:28:57.811Z",
  "devdoc": {
    "methods": {
      "payee(uint256)": {
        "details": "Getter for the address of the payee number `index`."
      },
      "shares(address)": {
        "details": "Getter for the amount of shares held by an account."
      },
      "totalShares()": {
        "details": "Getter for the total shares held by payees."
      }
    }
  },
  "userdoc": {
    "methods": {}
  }
}